:020000040000FA
:0600000041EF0AF01200BE
:0600080004EF10F01200ED
:060018000CEF10F01200D5
:0E0020000100BE140000B70000000200000046
:02002E00F00ED2
:100030008C1695160001636B676968696969666B60
:10004000010E6A6F1200D9CFE6FFE1CFD9FFE65269
:10005000000163511FE1040108BF1BD0400EE66E92
:10006000700EE66E030EE66E9DEC07F0E552E5526B
:10007000E5520001010E636FDF6A400EDF5C09E2AA
:10008000DF50EA6AB00FE96E030EEA22EF6ADF2A58
:10009000F4D781D103017051080A01E16BD10F0A35
:1000A00001E119D1010A01E10ED1030A01E1AAD04F
:1000B000010A6AE0070A5DE0010A01E06CD1030170
:1000C000020EB06F03013A0EB16F0301010EB26F61
:1000D0000301010EB36F0301B46B200EB56FB66B55
:1000E000B76B0301B86B600EB96FBA6BBB6B0301E2
:1000F000030EBC6F0301BD6BBE6B300EBF6FC06BD8
:1001000003010C0EC16FC26BC36BC46B0301010E04
:10011000C56F0301C66BC76B200EC86FC96B0301A7
:10012000080ECA6FCB6BCC6BCD6B0301CE6903019C
:10013000020ECE6F0301CF6BD06BF00ED16FD26B7E
:100140000301D36B010ED46FD56BD66B0301D76956
:1001500004010CBF0DD0400EE66EB00EE66E030E2D
:10016000E66E63EC07F0E552E552E5520001636B81
:1001700012D10001010E6A6F0301715102E1000109
:100180006A6B0001636B07D1800E0001646F656BC1
:100190000001000E645D020E65591FE2040064C098
:1001A00000F065C001F0026A060E1F0B00C0F6FFEA
:1001B00001C0F7FF02C0F8FF06E0D890F636F73628
:1001C000F836E806FAE1940EA66E9ED992EC08F095
:1001D0000001642B000E6523DBD7DF6ADF50A96EB8
:1001E000A868040EA66E92EC08F08ED9DF2AF6E11C
:1001F000F66AF76A200EF86E940EA66E85D9000195
:10020000636BC9D0300E0301735D07E100016A51D1
:1002100001E130D90001636BBED0F00E0301735DC4
:1002200004E150D90001636BB6D0E868000167199A
:1002300005E1E868681902E1E868691906E171C337
:1002400067F072C368F073C369F0670EE96E000E61
:10025000EA6EEE500301711908E1EE5003017219C4
:1002600004E1EE500301731900E12AE1DF6A0301A2
:100270007551DF5C25E23A0E0301D8807555DF2405
:10028000EA6A760FE96E030EEA22EF50E66E00018D
:100290006651EA6A6B0FE96E000EEA22E552E750FA
:1002A000EF6E0001662B0001672B000E6823000E25
:1002B0006923200E0001665D01E172D8DF2AD7D7DD
:1002C0000001636B68D06CD800016769686969696F
:1002D0000001636B60D00301070EB06F71C3B1F30F
:1002E00072C3B2F373C3B3F374C3B4F375C3B5F39A
:1002F00071C3F6FF72C3F7FF73C3F8FFDF6A030130
:100300007551DF5C26E2F00E0301735D13E1DF50EF
:1003100003017125A96EA66AA6803A0E0301D88052
:100320007555DF24EA6AB60FE96E030EEA22A8CFFC
:10033000EFFF0DD009003A0E0301D8807555DF2478
:10034000EA6AB60FE96E030EEA22F5CFEFFFDF2A65
:10035000D6D704010CBF0DD0400EE66EB00EE66E8F
:10036000030EE66E63EC07F0E552E552E55200013C
:10037000636B11D06D926D6ADF6AFF0EDF5C09E27C
:10038000E868E85004E0E80600D000D0FAD7DF2A99
:10039000F4D7FF0000D0E552E552E7CFD9FF1200B5
:1003A000D9CFE6FFE1CFD9FF030EE126010EDB6ACC
:1003B00066C000F0016A026A00500001675DF66ED7
:1003C000015000016859F76E025000016959F86E3A
:1003D0001F0EF614E76E020EE7CFDBFFE00EF616F7
:1003E000DF6A200EDF5C1EE2020EDB5015E1000129
:1003F00066510FE0010EDB50EA6A6B0FE96E000EEA
:10040000EA22EF50F56E0D00010EDB2A00016607AF
:1004100002D0F5680D0004D0F5680D00020EDB0671
:10042000DF2ADFD70A00A40EA66E6ED8DF6A0001AD
:100430006651DF5C15E2010EDB50DF24EA6A6B0FC8
:10044000E96E000EEA22EF50E66EDF50EA6A6B0FAB
:10045000E96E000EEA22E552E750EF6EDF2AE7D799
:10046000030EE15C02E2E16AE552E16EE552E7CF9C
:10047000D9FF1200D9CFE6FFE1CFD9FFE65271C311
:10048000F6FF72C3F7FF73C3F8FFDF6A030175510C
:10049000DF5C13E23A0E0301D8807555DF24EA6A67
:1004A000760FE96E030EEA22EF50F56E0C00C40ED3
:1004B000A66E2AD80900DF2AE9D7E552E552E7CF30
:1004C000D9FF1200D9CFE6FFE1CFD9FFE652DF6AAC
:1004D00003017551DF5C13E2DF507125A96E3A0EFE
:1004E000D8807555DF24EA6A760FE96E030EEA229A
:1004F000EF50A86E040EA66E07D8DF2AE9D7E552A2
:10050000E552E7CFD9FF1200F29E550EA76EAA0E54
:0C051000A76EA682A6B2FED7A694120029
:04051C006C500CE132
:100520006896040100513C0BE842E8420D0802E1E4
:100530000AD8010C41D8010C040E6C5C03E16896EA
:100540004AD8010C000CD9CFE6FFE1CFD9FFE65223
:10055000040104BF046B0001B36BAB6BAC6BB16BFC
:10056000B26B54EC04F0DF6ADF50006E016A010EDA
:10057000005C000E01581AE20001AC5117E1F76A65
:10058000DF34FE0BF736F66EDC0EF626120EF7227F
:100590000900F5CF00F00800F5CF01F004D001C04C
:1005A000FAFF0050F96EFBDFDF2ADED7E8D8E5520C
:1005B000E552E7CFD9FF1200020E0001AB5D09E161
:1005C000A1D8040100BD02D0C80E01D0880E006F72
:1005D000120004EF04F0040E0301FA5D09E112C4F5
:1005E0006EFF6E50000802E2050E01D0030EFA6F96
:1005F0000001AB0510E111D8020E0001B35D03E16B
:100600000401840E06D0040104BD02D0C80E01D03E
:10061000880E046F120004EF04F0D9CFE6FFE1CF9B
:10062000D9FF020EE1260001080EB15D000EB2599D
:100630000DE2B1C0DEFFB2C0DDFFB35102E1010E39
:1006400003D0B30506E1020EB36F03D0080EDE6ED1
:10065000DD6A040104930491010EDB500413DFCF23
:1006600005F4000EDB500001B15F010EDB50B25B00
:10067000180EAF6F040EB06F0301FBA31DD0D9CFCE
:10068000E9FFDACFEAFFEE50ED1032E0ADC0F6FF41
:10069000AEC0F7FF0800F550AFC0E9FFB0C0EAFFF9
:1006A000EF6E0001AF2B000EB023AD2BAE23DF06A3
:1006B000010EE5E2DB06E3D7D9CFE9FFDACFEAFFA7
:1006C000EE50ED1015E0ADC0E9FFAEC0EAFFEF500F
:1006D000AFC0E9FFB0C0EAFFEF6E0001AF2B000E24
:1006E000B023AD2BAE23DF06010EE6E2DB06E4D736
:1006F000020EE15C02E2E16AE552E16EE552E7CF0B
:10070000D9FF1200D9CFE6FFE1CFD9FF020EE126D3
:10071000030E04010015E76E010EE7CFDBFF01C4F5
:10072000DFFFDE500001B127DD50B223180EAD6FA0
:10073000040EAE6FD9CFE9FFDACFEAFFEE50ED102D
:1007400014E0ADC0E9FFAEC0EAFFEF50AFC0E9FF73
:10075000B0C0EAFFEF6EAF2B000EB023AD2BAE237F
:10076000DF06010EE7E2DB06E5D7020EE15C02E2FE
:10077000E16AE552E16EE552E7CFD9FF12006D98CC
:100780000001AC510BE10401080E016F100E026F65
:10079000040E036F840E006F040123D0040110AF18
:1007A00022D00001B1510401165D0001B2510401D3
:1007B000175904E216C4B1F017C4B2F02EDF0001DD
:1007C000010EAB6F0401080E016F100E026F040ED4
:1007D000036F800E006F0401180E066F040E076F82
:1007E000C80E046F12000001020EAB6F0401056B0E
:1007F000C80E046F0401080E016F180E026F040E7C
:10080000036FC80E006F1200D9CFE6FFE1CFD9FF0A
:10081000E652020E0001AB5D35E16D50100B32E087
:1008200004010151006E016A080E00182BE101500D
:1008300029E100513C0BE842E8420D0823E1005158
:10084000800B20E1100E026F040E036FDF6ADF5091
:10085000006E016A080E005C000E015820E2DF50B5
:10086000EA6A180FE96E040EEA22EF50E66EDF50D6
:10087000EA6A100FE96E040EEA22E552E750EF6EC5
:10088000DF2AE5D70001AB6B0401080E016F100EE3
:10089000026F040E036F8C0E006F0401046BE552AF
:0808A000E552E7CFD9FF120079
:0808A80004011051600BE8424D
:1008B000E842E842E842E842000901E01200115132
:1008C000070A4CE00B0A4AE0070A3BE0010A27E06E
:1008D0000B0A23E0020A21E0030A1DE0080A12E0E5
:1008E000010A0EE00F0A0AE0030A01E0120000010B
:1008F000010EAC6F0301040EFA6F1200AFEF04F0AB
:1009000006EF05F00001010EAC6F0001FC0EAD6FAB
:10091000030EAE6F10D02DEF05F078EF05F000015B
:10092000010EAC6F040114510001AD6FAE6BFD0EF2
:10093000AD27030EAE230301FB930001010EB16F3F
:1009400012000001010EAC6F04011451EA6AFD0FA0
:10095000E96E030EEA2212C4EFFF12001200800EAD
:100960000401105D52E11351030A30E0010A0CE06A
:10097000030A49E10001010EAC6F00011C0EAD6FCE
:10098000120EAE6F120E3CD00001010EAC6F0401CE
:100990001251F66EF76AD890F636F736D20EF62672
:1009A000120EF7220900F5CFADF00A00F5CFAEF038
:1009B000020E0001F76AAD25F66EAE51F72209006E
:1009C000F5CFB1F00A00F5CFB2F01DD00001010E55
:1009D000AC6F04011251F66EF76AD890F636F7360E
:1009E000D60EF626120EF7220900F5CFADF00A005A
:1009F000F5CFAEF0ADC0F6FFAEC0F7FF0800F55082
:100A00000001B16FB26B0301FB8312000001010E04
:100A1000AC6F0F0EE66E710EE66E0F0EE66EF9EC21
:100A200008F0E552E552E552010EE66EFD0EE66E67
:100A3000030EE66EF9EC08F0E552E552E55212C4F9
:100A4000FCF30401125104E10301050EFA6F1200D8
:100A50000301060EFA6F4EEF07F00401186B196BD5
:100A6000040110511F0B020A13E0030A0DE0010AF2
:100A700031E10001010EAC6F040118810301FBA1FB
:100A800029D00401188326D00001010EAC6F22D0BA
:100A90000001010EAC6F040114510F0B080DF3504F
:100AA000016A000F006E040E01221451800B01E058
:100AB000010E040DF35000010024AF6F000E012061
:100AC000B06FAFC0E9FFEA6EEF50040B03E0040122
:100AD000010E186F0001AC050AE10001180EAD6FA0
:100AE000040EAE6F0301FB930001020EB16F120002
:100AF0000401120510E110511F0B00090CE1000167
:100B0000010EAC6F030E0401115D03E10301FB81D3
:100B100002D00301FB910401125136E110511F0B69
:100B2000020832E114510F0B00092EE00001010E02
:100B3000AC6F040114510F0B080DF350016A000F44
:100B4000006E040E01221451800B01E0010E040D11
:100B5000F35000010024AF6F000E0120B06F030EB0
:100B60000401115D02E1840E03D014AF07D0400EE2
:100B7000AFC0E9FFB0C0EAFFEF6E1200880EAFC051
:0A0B8000E9FFB0C0EAFFEF6E1200BB
:060B8A0094900A0EC16EFA
:100B9000190EE66E31EC0AF0E552836A9568966AA2
:100BA000849084928494120EE66E1AEC0AF0E55258
:100BB000956A300EE66E1ED8E552300EE66E1AD8F3
:100BC000E552300EE66E16D8E552380EE66E12D8B3
:100BD000E552060EE66E0ED8E552180EE66E0AD8FD
:100BE000E5520C0EE66E06D8E5520301FF6BFFC31B
:100BF000FEF31200D9CFE6FFE1CFD9FFE6528350D2
:100C0000DF6E8490FE0EDB50836E84848494010E2C
:100C1000E66E31EC0AF0E552DF50836EE552E552A4
:100C2000E7CFD9FF1200D9CFE6FFE1CFD9FF020EFF
:100C3000E1268350DE6EDD6A0301FF510F0808E2F2
:100C4000FE5102E0A9D804D0010EE66E62D8E5524A
:100C50008480FE0EDB50836E84848494010EE66EE5
:100C600031EC0AF0E552DF50836E0301FF2B020ED8
:100C7000E15C02E2E16AE552E16EE552E7CFD9FFBD
:100C80001200D9CFE6FFE1CFD9FFFC0EDBCFF6FF94
:100C9000FD0EDBCFF7FFFE0EDBCFF8FF0800F550AF
:100CA00016E0D950FC0FE96EFF0EDA20EA6EEFCFA6
:100CB000F6FFEE2AEFCFF7FF000EEE22EFCFF8FFA0
:100CC000EE220800F550E66EAEDFE552DED7E552C3
:100CD000E7CFD9FF1200D9CFE6FFE1CFD9FFFD0E54
:100CE000DBCFE9FFFE0EDBCFEAFFEF500EE0FD0E9B
:100CF000DBCFE9FFDB2AFE0EDBCFEAFF01E3DB2AD5
:100D0000EF50E66E90DFE552EAD7E552E7CFD9FF24
:100D10001200D9CFE6FFE1CFD9FFFE0EDBCFFEF305
:100D20000301FF6BFE5102E0A80E01D0800EE66EBB
:100D300061DFE552190EE66E31EC0AF0E552E5523C
:100D4000E7CFD9FF1200D9CFE6FFE1CFD9FF060EDA
:100D5000E126D9CFE6FFDACFE6FFFD0EDBCFE6FFD7
:100D6000FE0EDBCFE6FFDCEC07F0E552E552E55284
:100D7000E552050EDB6AD9CFE6FFDACFE6FFABDF3F
:100D8000E552E552060EE15C02E2E16AE552E16EEF
:100D9000E552E7CFD9FF1200010EE66E2BDFE552D8
:100DA000190EE66E31EC0AF0E552E66AB2DFE55262
:020DB00012002F
:0E0DB200040110511F0B010801E01200145142
:100DC00001E01200060E115D28E11351230A23E011
:100DD000010A0FE0030A1FE10001020EAC6F0301DC
:100DE000FC0505E10001400EAD6F120EAE6F090E5D
:100DF0000FD00001020EAC6F0301FC0505E10001FC
:100E0000B50EAD6F120EAE6F0301FC0504E11D0EB1
:100E10000001B16FB26B0301FB8304011051600B41
:100E2000E842E842E842E842E842010801E01200F4
:100E300011510B0A2BE0080A1BE0090A13E0080A0B
:100E400009E00B0A05E0080A01E012004CEF07F088
:100E50004DEF07F00001020EAC6F0001B40EAD6F54
:100E6000000E0DD00001020EAC6F13C4B4F01200DE
:100E70000001020EAC6F0001B50EAD6F000EAE6F3B
:100E80000301FB930001010EB16F12000001020E7D
:100E9000AC6F12C4B5F01200120012000001B66B64
:100EA0001E0E716E0401400E096F200E0A6F040EB3
:100EB0000B6F880E086F0401600E0E6F040E0F6F2B
:100EC000400E0C6F1200D9CFE6FFE1CFD9FFE652FA
:100ED000FC0EDB50400805E2400EF36EFC0EF3CF33
:100EE000DBFFDF6AFC0EDB50DF5C19E2DF50E76EF0
:100EF000FD0EDBCFE9FFFE0EDBCFEAFFE750E92670
:100F0000000EEA22EF50E66EDF50EA6A600FE96EEB
:100F1000040EEA22E552E750EF6EDF2AE3D7FC0E1B
:100F2000DBCF0DF4400E04010C170C7D880E0C1362
:100F3000E552E552E7CFD9FF1200D9CFE6FFE1CF66
:100F4000D9FF0001B66B040108BF30D0FC0EDBCF27
:100F500000F00951D880005403E2FC0E09C4DBFF05
:100F60000001B66BFC0EDB50B65D19E2B651EA6AC1
:100F7000200FE96E040EEA22EF50E66EB651E76EDE
:100F8000FD0EDBCFE9FFFE0EDBCFEAFFE750E926DF
:100F9000000EEA22E552E750EF6EB62BE3D70401CC
:100FA000400E096F0817087D880E08130001B6511E
:080FB000E552E7CFD9FF120062
:080FB800D9CFE6FFDACFE6FF16
:100FC000FA0EE3CFD9FFFB0EE3CFDAFFFD0EE352BB
:100FD00009E72D0EDE6EFC0EE31EE32AFD0ED8B4EB
:100FE000E306E31EE652E652E652FD0EE124E76E0A
:100FF000FF0EE220E46EE652F70EE3CFE6FFF70EB7
:10100000E3CFE6FF4CEC08F0F90EE124E96EFF0EA9
:10101000E220EA6E3CEC08F00AE139EC08F009E164
:101020003CEC08F008E139EC08F007E108D047ECA7
:1010300008F042EC08F047EC08F042EC08F047EC0E
:1010400008F0DE6AF90EE126FF0EE222FF0EE3CF82
:10105000DAFFE552FF0EE3CFD9FFE552FC0EE124A3
:10106000E96EFF0EE220EA6EEECFF3FFEFCFF4FF62
:101070001200EF380F0B1200EF500F0B02E1EE528F
:10108000D8841200EF380F0B300FDE6E1200EE50D6
:101090000F0B300FDE6E1200FC0EE3CFE9FFFD0EEA
:1010A000E3CFEAFF100EE66EEE6AEE6AEF6AD890C2
:1010B000FD0EE336FE0EE336ED36ED36EF36FF0E6F
:1010C000E30609E06DEC08F0EE526DEC08F0EE522C
:1010D0006DEC08F0EDD7E56E1200030EEF24E8B6D4
:0C10E000EF6E300EEF24E8BEEF6E000C47
:0410EC006DA60CD809
:1010F0000301FA0508E16DBA06D0686A696A698079
:101100006988020EFA6F12006D6A696A6D860301C2
:10111000010EFA6F12006D6A696A0301FA6B120020
:101120008BEF08F00301FA5101E1120068B425D8F1
:101130006DB2120068B038D868B817D868BA24D829
:10114000030E0301FA5D01E212000001B96B040E07
:10115000B95D0AE268A608D08EEC02F0000901E150
:1011600068960001B92BF3D71200698468986D82E4
:10117000A19AA08A0300A09A12006D92699468A4B3
:1011800002D06894FCD7120070A00CD0800E04012D
:10119000005D07E1840E0401045D03E104018C0E8F
:1011A000006F7090689A12006A6A686A9F0E6B6E90
:1011B0007B0E696E6E6A0F0EE66E710EE66E0F0E96
:1011C000E66E17D8E552E552E552160E706E68A627
:1011D00005D0689600D000D00000F9D76D9804ECD7
:1011E00004F00301FB910301FC6B0301030EFA6F92
:1011F0001200D9CFE6FFE1CFD9FFFD0EDBCFE9FF2B
:10120000FE0EDBCFEAFFFC0EDB5004E0EE6AFC0EC4
:0C121000DB06F9D7E552E7CFD9FF12004A
:04121C0012010002B9
:1012200000000008D8043C0002000102000109028D
:101230002900010100C0320904000002030000007F
:10124000092111010001221D000705810340000151
:10125000070501034000010403090434034D00693C
:1012600000630072006F0063006800690070002076
:101270000054006500630068006E006F006C006F32
:101280000067007900200049006E0063002E0026F0
:10129000034800490044002000550053004200204C
:1012A0000042006F006F0074006C006F006100640A
:1012B00000650072000600FF0901A1011901294023
:1012C000150026FF007508954081021901294091FB
:0E12D00002C02E122E1257125B128F12B20D98
:0212DE000F0EF1
:1012E000C16E9368F19EC5EC05F08290CCEC06F0DF
:1012F00081A404D0070EC16E00EF10F08280CCEC08
:1013000006F09E0E006E140E016E026A00C0E6FF2B
:1013100001C0E6FF02C0E6FF41EC06F0E552E552EF
:10132000E5520ED8040016D819D8060E0301FA5D4E
:1013300005E16D50020B02E123EC00F0F3D712003F
:10134000140E6F6E0301FA6B0301FB6B0301FC6B60
:1013500017EF00F076EC08F092EF08F00001B751BB
:10136000B81104E1100EB76F270EB86FB707000E63
:10137000B85B060E0301FA5D02E28C8008D0000122
:10138000B751B81107E18C708C50010B02E08C92C0
:0613900012008C82120025
:0A139600200EF66E000EF76E000E3A
:1013A000F86E03010900F550F56F0900F550F66F6E
:1013B00003E1F56701D03DD00900F550F06F090059
:1013C000F550F16F0900F550F26F09000900F55072
:1013D000E96E0900F550EA6E090009000900F550B0
:1013E000F36F0900F550F46F09000900F6CFF7F329
:1013F000F7CFF8F3F8CFF9F3F0C3F6FFF1C3F7FF37
:10140000F2C3F8FF0301F35302E1F45307E00900CC
:10141000F550EE6EF307F8E2F407F9D7F7C3F6FFDD
:10142000F8C3F7FFF9C3F8FF0301F507000EF65BF9
:04143000BFD7120010
:0C143400FF0EE350066EEF0E01D0F30E29
:10144000E76EE72E21EF0AF00C0E056EE76AE72E35
:1014500027EF0AF0052E26EF0AF0062E1FEF0AF0FE
:02146000120078
:0E146200FF0EE350066E480E01D04C0EE76EF2
:10147000E72EFED7E76AE72EFED7062EF7D7000045
:02148000120058
:0E14820013EE00F023EE00F0F86A049CCBECB1
:0E14900009F05EEC0AF06FEC09F0FBD71200D9
:02149E00426F9B
:0E14A0006F746C6F61646572206D6F6465001F
:0214AE0000EE4E
:0C14B00000F00F0EEE6AEA62FDD7120099
:0214BC0012001C
:0214BE0000002C
:020000040030CA
:0100000024DB
:010001000EF0
:010002003FBE
:010003001EDE
:010005008179
:010006008178
:010008000FE8
:01000900C036
:01000A000FE6
:01000B00E014
:01000C000FE4
:01000D0040B2
:00000001FF
